:020000040801F1
:100000003807002029020108B9030108710301081B
:10001000B5030108D30201085F09010800000000D0
:10002000000000000000000000000000F5060108CC
:10003000D702010800000000D10601080D080108E0
:100040004302010843020108430201084302010878
:100050004302010843020108430201084302010868
:100060004302010843020108430201084302010858
:100070004302010843020108430201084302010848
:100080004302010843020108430201084302010838
:100090004302010843020108430201084302010828
:1000A0004302010843020108430201084302010818
:1000B0004302010843020108430201084302010808
:1000C00043020108430201084302010843020108F8
:1000D00043020108790801084302010843020108AC
:1000E00043020108430201084302010843020108D8
:1000F00043020108430201084302010843020108C8
:1001000043020108430201084302010843020108B7
:1001100043020108430201084302010843020108A7
:100120004302010843020108430201084302010897
:100130004302010843020108430201084302010887
:100140004302010843020108430201084302010877
:100150004302010843020108430201084302010867
:100160004302010843020108430201084302010857
:100170004302010843020108430201084302010847
:10018000430201084302010800F002F800F03CF8C5
:100190000AA090E8000C82448344AAF10107DA45E2
:1001A00001D100F031F8AFF2090EBAE80F0013F0F8
:1001B000010F18BFFB1A43F0010318472411000078
:1001C00044110000103A24BF78C878C1FAD8520709
:1001D00024BF30C830C144BF04680C6070470000C1
:1001E0000023002400250026103A28BF78C1FBD840
:1001F000520728BF30C148BF0B6070471FB500F0E1
:100200005DFC1FBD10B510BD00F038F81146FFF7BA
:10021000F5FF00F009FC00F056F803B4FFF7F2FF19
:1002200003BC00F09EFB00000948804709480047D6
:10023000FEE7FEE7FEE7FEE7FEE7FEE7FEE7FEE796
:10024000FEE7FEE704480549054A064B70470000F3
:100250001108010889010108380100203807002031
:1002600038030020380300207047704770477047FC
:100270007047000000487047D40000207546FFF723
:10028000F9FFAE4605006946534620F00700854653
:1002900018B020B5FFF7D6FFBDE820404FF00006AC
:1002A0004FF000074FF000084FF0000B21F007015E
:1002B000AC46ACE8C009ACE8C009ACE8C009ACE8A1
:1002C000C0098D4670470446AFF300802046FFF713
:1002D000A4FF00BFFEE77047F0B50A4600210023E7
:1002E000002400BF3DE0012505FA01F3156805EA89
:1002F00003049C4234D105684F000326BE40B54339
:10030000056015794E00B5400668354305601579DE
:10031000012D02D01579022D16D185684F000326D4
:10032000BE40B543856055794E00B540866835437B
:100330008560456801268E40B543456045689679DD
:100340008E40B6B235434560C5684F000326BE40B7
:10035000B543C560D5794E00B540C6683543C56024
:10036000491C1029BFD3F0BD4183704701837047FA
:1003700000BFFEE71CB50121202000F0ABF94FF4CF
:10038000C060009001208DF8040000208DF8060068
:1003900003208DF8050001208DF807006946044808
:1003A000FFF79AFF4FF4C0610148FFF7DFFF1CBD64
:1003B0000014024000BFFEE7704770B5002419E04A
:1003C00004F1B001C8B2002100F04AF9002108464A
:1003D00000F046F90021102000F042F9002505E068
:1003E0000121002000F03CF9681CC5B2802DF7DB2C
:1003F000601CC4B2082CE3DB70BD00001CB50121F9
:10040000082000F067F94FF4FC70009001208DF88F
:10041000040000208DF8060003208DF8050001205F
:100420008DF8070069465548FFF756FF4FF4FC71F9
:100430005248FFF79BFF0320009069465048FFF7A2
:100440004BFF03214E48FFF791FF4FF4004000900F
:1004500069464C48FFF740FF4FF400414948FFF719
:1004600085FF10214548FFF781FF642000F09AFACC
:1004700010214248FFF778FF642000F093FA102122
:100480003E48FFF773FF0021AE2000F0E9F800219D
:10049000084600F0E5F80021102000F0E1F8002106
:1004A000402000F0DDF80021812000F0D9F8002183
:1004B000CF2000F0D5F80021A12000F0D1F80021D4
:1004C000C82000F0CDF80021A62000F0C9F80021D6
:1004D000A82000F0C5F800213F2000F0C1F800215D
:1004E000D32000F0BDF80021084600F0B9F8002143
:1004F000D52000F0B5F80021802000F0B1F80021EF
:10050000D92000F0ADF80021F12000F0A9F8002179
:10051000DA2000F0A5F80021122000F0A1F8002157
:10052000DB2000F09DF80021402000F099F8002128
:10053000202000F095F80021022000F091F8002121
:100540008D2000F08DF80021142000F089F80021A2
:10055000A42000F085F80021A62000F081F80021F9
:10056000AF2000F07DF80021AF2000F079F8FFF710
:1005700024FF0021084600F007F81CBD000C0240D3
:10058000000802400018024070B504460D4605F10F
:10059000B001C8B2002100F063F8102141EA141044
:1005A000002100F05DF804F00F0141F0010000218E
:1005B00000F056F870BD00002DE9F04107460E46E8
:1005C000904600250024A8F12000C5B27F2F02DD4F
:1005D0000027B01CC6B231463846FFF7D5FF0024CD
:1005E00008E004EB05110F4A505C012100F038F8D7
:1005F000601CC4B2082CF4DB701CC1B23846FFF793
:10060000C3FF002409E004EB05110831054A505CE2
:10061000012100F025F8601CC4B2082CF3DBBDE812
:10062000F0810000EE0C01082DE9F04104460F4670
:10063000154600260EE0AA5D39462046FFF7BCFFAE
:1006400004F10800C4B2782C02DD0024B81CC7B243
:10065000701CC6B2A85D0028EDD1BDE8F081000095
:1006600070B504460E4626B120211848FFF77EFEDD
:1006700003E020211548FFF777FE08211348FFF714
:1006800073FE002517E040211048FFF76DFE04F0CF
:10069000800020B180210D48FFF768FE03E0802133
:1006A0000A48FFF761FE40210848FFF75FFE600639
:1006B000040E681CC5B2082DE5DB08210348FFF7CE
:1006C00055FE20210148FFF751FE70BD000C02408D
:1006D0007047000029B1064A12680243044B1A60B1
:1006E00004E0034A12688243014B1A60704700001D
:1006F00030380240704700000CB500200190009097
:100700003448006840F480303249086000BF314806
:10071000006800F4003000900198401C019000989F
:1007200018B90198B0F5A04FF1D12A48006800F43B
:10073000003010B10120009001E0002000900098EE
:10074000012846D123484030006840F080502149BC
:10075000403108602048006840F440401E4908606D
:100760001C48083000681B490831086008460068CA
:1007700040F4004008600846006840F4A05008605B
:100780001648091F0860081F006840F08070091FA4
:10079000086000BF0F48006800F000700028F9D022
:1007A00040F205700E4908600A480830006820F0E1
:1007B00003000849083108600846006840F002005C
:1007C000086000BF03480830006800F00C000828EB
:1007D000F8D10CBD003802400070004008544007BA
:1007E000003C0240042808D14FF0E021096941F0A3
:1007F00004014FF0E022116107E04FF0E0210969A8
:1008000021F004014FF0E0221161704770470000B1
:1008100010B51548006840F470001349086013488B
:10082000006840F001001149086000200F490831BC
:1008300008600E4800680E4908400C4908600D48E1
:10084000091D0860081F006820F48020091F086047
:10085000002006490C310860FFF74EFF4FF00060A2
:1008600001498039086010BD88ED00E00038024081
:10087000FFFFF6FE1030002410B540F225511D4850
:1008800000F03EF810B31B4800F064F8C4B21A48F8
:10089000008800F40040C8B91748008800F4804080
:1008A00060B10A2C03D000201349088020E01248D0
:1008B000008840F400401049088019E00D2C06D152
:1008C0000D48008840F480400B49088010E00A4839
:1008D0000088C0F30D0009490C5407480088401CEB
:1008E0000549088008460088C72801DD00200880E7
:1008F00010BD000000100140080000200C00002086
:1009000070B50246002400230025002040F66A1638
:10091000B14200D100BFC1F3421501F01F0301260F
:1009200006FA03F3012D02D19689334006E0022D29
:1009300002D1168A334001E0968A33400C12012618
:1009400006FA04F41688344013B10CB1012000E01B
:10095000002070BD01468888C0F30800704700BFC2
:10096000FEE700BF7047000010B504466FF00400BA
:10097000FFF738FFE11704EB5171C1F3C701074AD4
:1009800011701046007800EB4001C1EBC0104FF62B
:10099000FF7101EAC0000249088010BD000000207C
:1009A0000200002070B504464FF4077094FBF0F08D
:1009B000C6B24FF4077094FBF0F100FB114085B212
:1009C00005E04FF4077000F009F8701EC6B2002E63
:1009D000F7D115B1284600F001F870BD0146114A63
:1009E00012884A434FF0E0235A6100229A611A4666
:1009F000126942F001021A6100BF4FF0E022106953
:100A000000F001021AB100F48032002AF5D04FF054
:100A1000E022126922F001024FF0E0231A61002265
:100A20009A61704702000020A820FFF79DFF184838
:100A300018490860FFF79EFCFFF7E0FCFFF7BDFCDC
:100A400015A202210020FFF7EFFD17A204210020CC
:100A5000FFF7EAFD0120174908601749C1F8A8020D
:100A600015E04FF47A70FFF79DFF1248006808B94F
:100A7000012000E000200F4908600F48D0F8A802CC
:100A800008B9012000E000200A49091D0860E8E7D4
:100A90000000010808ED00E04C45445F4150505F04
:100AA00052554E494E4700004150505F4C45443D21
:100AB00031530000A4824242008042424FF0407015
:100AC000E1EE100A70470000000000000000002F57
:100AD000000000000700070000147F147F140024AA
:100AE0002A7F2A12006264081323003649552250D7
:100AF00000000503000000001C224100000041220C
:100B00001C000014083E08140008083E08080000F5
:100B100000A06000000808080808000060600000ED
:100B2000002010080402003E5149453E0000427F6B
:100B30004000004261514946002141454B310018B7
:100B400014127F10002745454539003C4A49493079
:100B50000001710905030036494949360006494933
:100B6000291E00003636000000005636000000083E
:100B7000142241000014141414140000412214081B
:100B800000020151090600324959513E007C121100
:100B9000127C007F49494936003E41414122007F95
:100BA0004141221C007F49494941007F090909014F
:100BB000003E4149497A007F0808087F0000417FD4
:100BC0004100002040413F01007F08142241007F86
:100BD00040404040007F020C027F007F0408107FED
:100BE000003E4141413E007F09090906003E415156
:100BF000215E007F09192946004649494931000113
:100C0000017F0101003F4040403F001F2040201F66
:100C1000003F4038403F0063140814630007087029
:100C2000080700615149454300007F4141000055DC
:100C30002A552A55000041417F00000402010204A8
:100C40000040404040400000010204000020545495
:100C50005478007F484444380038444444200038E5
:100C60004444487F00385454541800087E09010257
:100C70000018A4A4A47C007F080404780000447D2C
:100C80004000004080847D00007F10284400000068
:100C9000417F4000007C04180478007C080404783C
:100CA00000384444443800FC242424180018242428
:100CB00018FC007C08040408004854545420000424
:100CC0003F444020003C4040207C001C2040201C31
:100CD000003C4030403C004428102844001CA0A0A8
:100CE000A07C004464544C441414141414140000E4
:100CF00000000000000000000000000000000000F4
:100D000000F8000000000000003330000000001078
:100D10000C06100C0600000000000000000040C09F
:100D20007840C0784000043F04043F040400007091
:100D300088FC08300000001820FF211E0000F00889
:100D4000F000E018000000211C031E211E0000F02E
:100D50000888700000001E21232419272110101676
:100D60000E00000000000000000000000000000075
:100D700000E01804020000000007182040000002F4
:100D80000418E00000000040201807000000404068
:100D900080F0804040000202010F010202000000CA
:100DA00000F0000000000101011F0101010000002E
:100DB00000000000000080B0700000000000000093
:100DC000000000000000000101010101010100001C
:100DD00000000000000000303000000000000000B3
:100DE000000080601804006018060100000000E0A8
:100DF00010080810E000000F102020100F00001055
:100E000010F8000000000020203F202000000070AB
:100E100008080888700000302824222130000030A3
:100E20000888884830000018202020110E0000009B
:100E3000C02010F8000000070424243F240000F81C
:100E40000888880808000019212020110E0000E001
:100E5000108888180000000F112020110E000038A3
:100E60000808C83808000000003F000000000070BB
:100E7000880808887000001C222121221C0000E044
:100E800010080810E0000000312222110F000000BD
:100E900000C0C00000000000003030000000000072
:100EA00000800000000000008060000000000000E2
:100EB000804020100800000102040810200040407B
:100EC00040404040400004040404040404000008BE
:100ED0001020408000000020100804020100007073
:100EE00048080808F0000000003036010000C0305B
:100EF000C828E810E0000718272423140B0000007E
:100F0000C038E0000000203C23020227382008F807
:100F1000888888700000203F202020110E00C030FB
:100F2000080808083800071820202010080008F8D2
:100F300008080810E000203F202020100F0008F8CB
:100F40008888E8081000203F20202320180008F897
:100F50008888E8081000203F200003000000C0300F
:100F600008080838000007182020221E020008F890
:100F700008000008F808203F210101213F20000857
:100F800008F8080800000020203F20200000000092
:100F90000808F8080800C08080807F00000008F87A
:100FA00088C028180800203F20012638200008F8B3
:100FB000080000000000203F20202020300008F81A
:100FC000F800F8F80800203F003F003F200008F834
:100FD00030C00008F808203F200007183F00E0104C
:100FE00008080810E0000F10202020100F0008F85B
:100FF00008080808F000203F210101010000E0106E
:1010000008080810E0000F18242438504F0008F892
:10101000888888887000203F2000030C30200070F2
:101020008808080838000038202121221C001808F0
:1010300008F8080818000000203F2000000008F809
:1010400008000008F808001F202020201F00087852
:10105000880000C83808000007380E010000F808B2
:1010600000F80008F800033C0700073C03000818DC
:1010700068808068180820302C03032C3020083842
:10108000C800C83808000000203F200000001008F9
:101090000808C83808002038262120201800000041
:1010A00000FE020202000000007F40404000000CF1
:1010B00030C000000000000000010638C00000023F
:1010C0000202FE000000004040407F0000000000DF
:1010D0000402020204000000000000000000000002
:1010E00000000000000080808080808080800002FE
:1010F00002040000000000000000000000000000EA
:101100008080808000000019242222223F2008F8DD
:10111000008080000000003F112020110E00000020
:10112000008080800000000E1120202011000000AF
:1011300000808088F800000E112020103F20000061
:10114000808080800000001F222222221300008065
:1011500080F0888888180020203F202000000000B0
:10116000808080808000006B94949493600008F8E5
:10117000008080800000203F210000203F20008070
:101180009898000000000020203F20200000000070
:1011900000809898000000C08080807F000008F8E0
:1011A000000080808000203F24022D3020000008B5
:1011B00008F8000000000020203F20200000808070
:1011C000808080808000203F20003F20003F808082
:1011D000008080800000203F210000203F20000090
:1011E000808080800000001F202020201F00808041
:1011F00000808000000080FFA12020110E00000070
:10120000008080808000000E112020A0FF80808060
:1012100080008080800020203F212000010000000D
:1012200080808080800000332424242419000080E2
:1012300080E0808000000000001F202000008080EF
:10124000000000808000001F202020103F208080B0
:1012500080000080808000010E3008060100808040
:101260000080008080800F300C030C300F00008065
:101270008000808080000020312E0E312000808090
:1012800080000080808080818E70180601000080C0
:101290008080808080000021302C222130000000DE
:1012A0000000807C020200000000003F404000007F
:1012B0000000FF00000000000000FF00000000022E
:1012C000027C800000000040403F0000000000065B
:1012D0000101020204040000000000000000000000
:1012E00000130108000000200C000000C4010108E8
:1012F0000C1301080C0000202C070000E00101087D
:0C130000000000000000000000000000E1
:040000050801018964
:00000001FF
