:020000040800F2
:10000000E80F002005030008092100085F1C000814
:1000100005210008371900082B2E000800000000F9
:10002000000000000000000000000000E1270008C0
:100030003B1900080000000015250008F9280008F9
:100040001F0300081F0300081F0300081F03000808
:100050001F0300081F0300081F0300081F030008F8
:100060001F0300081F0300081F0300081F030008E8
:100070001F0300081F0300081F0300081F030008D8
:100080001F0300081F0300081F0300081F030008C8
:100090001F0300081F0300081F0300081F030008B8
:1000A0001F0300081F0300081F0300081F030008A8
:1000B0001F0300081F0300081F0300081F03000898
:1000C0001F0300081F0300081F0300081F03000888
:1000D0001F0300081F0300081F030008D12A00089F
:1000E0001F0300081F0300081F0300081F03000868
:1000F0001F0300081F0300081F0300081F03000858
:100100001F0300081F0300081F0300081F03000847
:100110001F0300081F0300081F03000865290008CB
:100120001F0300081F0300081F0300081F03000827
:100130001F0300081F0300081F0300081F03000817
:100140001F0300081F0300081F0300081F03000807
:100150001F0300081F0300081F0300081F030008F7
:100160001F0300081F0300081F0300081F030008E7
:100170001F0300081F0300081F0300081F030008D7
:100180001F0300081F03000800F002F800F0A2F8A7
:100190000AA090E8000C82448344AAF10107DA45E2
:1001A00001D100F097F8AFF2090EBAE80F0013F092
:1001B000010F18BFFB1A43F001031847B85A00009B
:1001C000D85A00000A4410F8014B14F00F0508BF7C
:1001D00010F8015B240908BF10F8014B6D1E05D013
:1001E00010F8013B6D1E01F8013BF9D1641E03D0EC
:1001F000641E01F8015BFBD19142E4D3704700001B
:100200000023002400250026103A28BF78C1FBD81F
:10021000520728BF30C148BF0B6070476E2900F0FD
:10022000EA82702900F05181662903F0BE846529B5
:1002300003F0BB84672903F0B8846129AFF3008021
:1002400003681B0A28BF41F08001692900F0C280C1
:10025000642900F0BF80752900F0BC806F2900F090
:10026000E383782900F01D81E92900F07D83E429EA
:1002700000F07A83F52900F07783EF2900F0E0831E
:10028000F82900F01C810368DB0928BF41F08001D8
:10029000632900F0EC82732900F0F182E32900F079
:1002A0003586F32900F03A86002070471FB503F029
:1002B00077FC00F089FE04000020002103F05AFCC6
:1002C000401C60600020002103F03EFCE0601FBD88
:1002D00010B510BD00F04AFE1146FFF7E7FF03F02E
:1002E00029F800F023FF03B4FFF7F2FF03BC02F08C
:1002F000BDFD000030BF72B6704762B6704780F334
:10030000088870470948804709480047FEE7FEE72C
:10031000FEE7FEE7FEE7FEE7FEE7FEE7FEE7FEE7B5
:1003200004480549034A054B70470000FD280008B2
:1003300089010008E80B0020E80F0020E80B0020EE
:10034000704700001CB50C46064B7B446946009084
:10035000204600F06AFA04460020694600F078FA68
:1003600020461CBD030500000FB4044910B503AAC4
:10037000029800F089FA10BC5DF814FB5C030020C1
:1003800070B50C460546012A05D02878800600D5B0
:10039000EA69002302E0012305E05B1C934202D2DC
:1003A000E05C0028F9D1A869E618C01AA861286A9B
:1003B00018442862284600F08CF904E0D5E90121B0
:1003C00014F8010B9047B442F8D3284600F097F98F
:1003D00070BD00002DE9F041064600241068752923
:1003E000314616A510D000F09BF9002802DA4042F1
:1003F00013A507E031688A0701D512A502E0490775
:1004000004D511A5012401E000F093F900210A228E
:1004100006F1240709E0B0FBF2FCB0FBF2F302FBAB
:100420001C00303078541846491C0028F3D123466C
:100430002A463046BDE8F04100F084B900000000D3
:100440002D0000002B00000020000000F0B40D463D
:100450000188090502D5214C7C4402E01F4C7C44F4
:100460000E34002100F1240608E002F00F07120903
:10047000E75D42EA03721B097754491C52EA0307FD
:10048000F3D102780023120704D5702D06D009B1EC
:10049000022311342246F0BC00F054B90123103479
:1004A000F8E770B504460D462146106800F041F9A2
:1004B000024629462046BDE870400023C6E7D21D0B
:1004C00022F00703D3E90023C0E70368126843F072
:1004D000200303600823C3610023B7E72A57000005
:1004E0002DE9F05F894604464FF0000ADFF874B149
:1004F000FB44C0F820A02046E1688847002874D05B
:10050000252806D0D4E901219047206A401C2062AA
:10051000F1E700265F462046E16888472028054627
:1005200007DB312D05D2781910F8200C08B10643ED
:10053000F1E7B00701D526F00406C4F81CA0002797
:10054000C4F818A02A2D09D0284602F088FC38B338
:1005500004EB8708303DC8F8185019E059F8041B1F
:10056000204604EB87029161E1688847012F054628
:1005700018D1E069002820DA26F020061DE0D8F81E
:10058000180000EB800005EB40003038C8F8180078
:100590002046E1688847054602F061FC0028EED15C
:1005A000012F0AD02E2D08D12046E16888477F1CF4
:1005B0000546022F46F02006C4DBA069002803DAB6
:1005C000404246F00106A061F00701D026F0100677
:1005D0006C2D0BD0682D09D04C2D39D06A2D35D01B
:1005E000742D35D07A2D33D016E038E0E1682F46EF
:1005F00020468847B842054609D16C2F26D04FF4D3
:100600008060E168064320468847054604E06C2F79
:100610001AD04FF4807006430DB3A5F1410019289C
:1006200002D8203546F400664A4629462046266010
:100630004E46FFF7F3FD80B101280BD0F61D26F0E2
:10064000070000F1080956E74020E4E78020D8E7DA
:100650000020D6E706F104094DE7284652E7206A54
:10066000BDE8F09FBA56000030B505460B462A4655
:1006700013F8014B12F8010B08B1A042F8D01CB1DD
:10068000002802D06D1CF1E7284630BD10B5431C90
:1006900002E010F8011B71B18107FAD14FF001326D
:1006A00002C88C1A8C4314EAC211F9D0C01A0A0687
:1006B00003D0C01E10BDC01A10BD0A0401D0801E98
:1006C00010BD0902FCD0401E10BD70477047704736
:1006D000704770B5044685690068C10601D53026AB
:1006E00000E02026C00707D070BDD4E901213046C4
:1006F0009047206A401C20626D1EF6D570BD70B513
:10070000044685690078C00707D170BDD4E901218E
:1007100020209047206A401C20626D1EF6D570BDD7
:1007200009684A0501D540B27047C905FCD500B239
:10073000704709684A0501D5C0B27047C905FCD5A4
:1007400080B270472DE9F0470D469946924604461F
:1007500000F124080168880604D5E06921F0100141
:10076000216000E00120A84201DD471B00E00027D6
:10077000A1697A1902EB0900081AA0612078C00665
:1007800002D42046FFF7A5FF002608E0D4E90121A6
:100790001AF806009047206A401C761C20624E45DD
:1007A000F4DB2078C0060AD52046FFF792FF06E06A
:1007B000D4E9012130209047206A401C2062381E75
:1007C000A7F10107F4DC07E0D4E9012118F80500DE
:1007D0009047206A401C2062281EA5F10105F3DC29
:1007E0002046FFF78CFF2078000602D50220BDE8E6
:1007F000F0870120FBE711680268006A530501D504
:1008000008700AE0D30501D5088006E0130603D579
:10081000C217C1E9000200E0086001207047000033
:1008200001694A1C02610878704700B58FB0CDE9B4
:1008300001310021059105497944CDE903101146A4
:100840006846FFF74DFE0FB000BD0000E5FFFFFF5B
:100850000A6802F8010B0A60704710B5436913B1CA
:10086000AFF3008001E0FFF78BFD012010BD12788F
:1008700000F124010A7000224A700122EDE711689C
:100880004FF0FF32E9E70000074B70B50D467B449F
:10089000FFF7CBFF0446284600F044FB10B14FF0B1
:1008A000FF3070BD204670BDF32900002DE9FF5FC9
:1008B00015468A460446DFF8AC80F8440027D8E99C
:1008C00000103E46CDE9001010E03AF816106A46D6
:1008D00002A800F02BFB411C07D02178890603D524
:1008E000E269391891420DD80744761C20788006B9
:1008F00002D5E069B84205DDAE42E6DB3AF8160003
:100900000028E2D1A069C01BA0612046FFF7E1FEEC
:10091000D8E90010CDE90010002017E03AF81810CF
:100920006A4602A800F002FBB0F1FF3F81460BD0FF
:1009300000250DF1080B05E0D4E901211BF80500A5
:1009400090476D1C4D45F7D308F10100B042804639
:10095000E4DB206A384420622046FFF7D0FEBDE881
:10096000FF9F0000025300002DE9F0418046D21D98
:1009700022F007020025D2E90002F52915A614D0BD
:10098000011E72F1000106DA0023D0EB030063EBD5
:10099000020211A608E0D8F800108B0701D50FA6B7
:1009A00002E0490701D50EA601251146002408F1F1
:1009B000240704E000F04EF830323A55641C50EA47
:1009C0000102F7D12B46324621464046BDE8F041B0
:1009D000FFF7B8BE000000002D0000002B00000053
:1009E0002000000030B4002100F1240408E002F0EF
:1009F0000705D208303542EA4372DB086554491CCA
:100A000052EA0305F3D10468002310A2250708D594
:100A100004F020040C4304D0C46901230CA2641E1A
:100A2000C46130BCFFF78EBE10B504462146106885
:100A3000FFF77FFE02462046BDE810400023D1E7C5
:100A4000D21D22F00701D1E90023CBE7000000000E
:100A50003000000030B5B0F10A024FEA900E71F19B
:100A600000034EEA817EB0EB0E0061EB91014FEA8C
:100A7000101E4EEA017E10EB0E0041EB11114FEA01
:100A8000102E4EEA016E10EB0E0041EB11214FEAE1
:100A9000104E4EEA014E10EB0E0041EB1141401892
:100AA00041F100014FEAD00040EA41704FEAD10124
:100AB00010EB80054FEA810444EA907444EB010492
:100AC0006D1944EB0404521BA3414FF0000348BFCF
:100AD0000A3200D530BD401C41F1000130BD7047E5
:100AE0002DE9FF4F0C461E464FF0FF378BB0D2E981
:100AF0000001DDF860800A908A46C1F30A5505B905
:100B00003D46002108464FF00000BAF1000F00F406
:100B1000400005DA00EB80004FF4400101EA50008C
:100B20004FEA9059B9F1010F00DDB9460A9850EA31
:100B30004A000ED044F61050A5F2FF3545432F145D
:100B4000B8F1000F1ED07542291E1EDDC9F100024A
:100B50001CE0B8F1010F4FF0000001D0302103E09C
:100B6000F24305E02154401CB042FBDB304600223A
:100B7000002121540B99C1F80880C1E900200FB071
:100B8000BDE8F08FBD1B6D1CDEE74A4600DA694206
:100B900006A800F05DFA06AB93E8070003AB83E814
:100BA000070050460A9900F00BFB8DE80700A0F5FE
:100BB00000501F3800900398002D09DD42F21F01FC
:100BC0004A46084403A90390684600F06AFD08E01D
:100BD000A0F500504A461F3803A90390684600F06C
:100BE00074FD8DE807000004000C03D04FF0FF30C7
:100BF000410800E01046B8F1000F03D00022009237
:100C000015461EE0751E05D4FFF724FF30326255ED
:100C10006D1EF9D5B3460122084302D000227F1C85
:100C200004E02078302801D100227F1E002A099795
:100C300086D01DE0112D07DAFFF70CFF3032625528
:100C40006D1C50EA0102F5D1084302D00098C8B1EA
:100C50000EE00021681E05E0235C625C63542254B0
:100C6000401E491C8142F7DBAB46A81B401E099081
:100C7000002004F80B000B98099AC0F80880C0E91E
:100C8000002B7CE711264FF0000859E72DE9F04FC3
:100C900088460446D21D22F0070191B0D1E9000137
:100CA000CDE90A0102F0C3F802460B98C00F01D04B
:100CB0002D2007E02068810701D52B2002E02021AC
:100CC00001EAC000032A099001D0072A05DB034688
:100CD0004146204600F07CF90BE12078800601D5E2
:100CE000E06900E00620B8F1650F814606D0B8F152
:100CF000660F18D0B8F1670F70D131E00020B9F15C
:100D0000110F009001DB112301E009F101030AAA90
:100D100001A90CA8FFF7E4FEDDE90C70002609F13B
:100D20000105834647E001204B4600904FF0004705
:100D30000AAA01A90CA8FFF7D3FEDDE90DB00C99B2
:100D40005D46002610B909F101000D18B9EB050048
:100D500003D4C0F1FF3609F10105A5EB09002BE032
:100D6000B9F1010F01DA4FF001090020B9F1110FBB
:100D70000090484601DD112300E003460AAA01A9BC
:100D80000CA8FFF7ADFEDDE90C704D46002683464A
:100D9000207800070AD4AB4500DA5D4601A8012D92
:100DA00004DD411911F8011C302907D04F4502DA42
:100DB00017F1040F04DA012082460FE06D1EEEE702
:100DC000002F02DCED1B3E4403E0781CA84200DD4E
:100DD0007D1CB81B00F1010A4FF000472078000786
:100DE00003D4AA4501DB4FF0FF3A0021B7F1004FD1
:100DF0000DF143088DF8431024D002202B23002F3F
:100E000001DA7F422D230A21021EA0F1010000DC3D
:100E10005FB197FBF1FC97FBF1F201FB1C7C1746DD
:100E20000CF1300C08F801CDEEE7A8F101000370D9
:100E30002188090501D5452100E06521A0F10108BF
:100E400000F8011C09980FA9A1EB0807FF1D00B1CC
:100E50000120411901EBEA70A1693844081A401ECB
:100E6000A0612078C00602D42046FFF732FC099822
:100E700028B1D4E901219047206A401C20622078E3
:100E8000C00622D52046FFF724FC1EE0002E04DB1E
:100E9000B34502DD01A8805D00E03020D4E90121E6
:100EA0009047206A401C2062761CAAF101005FEA8C
:100EB000000A0AD100F088F8C0680168405CD4E9F3
:100EC00001219047206A401C2062281EA5F10105DF
:100ED000DCDC07E0D4E9012118F8010B9047206A17
:100EE000401C2062381EA7F10107F3DC2046FFF703
:100EF00006FC032011B043E610B5436913B1AFF30C
:100F0000008001E0FFF7D2FC012010BD128800F143
:100F1000240182840022C2840122EDE711684FF08F
:100F2000FF32E9E7007B00F08000704770B516469D
:100F30000C46054600F040F8036893F801010128CB
:100F400006D0FF2C0FD8185D68B101202C7070BD41
:100F5000D3F807013246214603F20713034428461B
:100F6000BDE8704018474FF0FF3070BD754600F087
:100F7000E3F8AE4605006946534620F00700854673
:100F800018B020B5FFF7CCF9BDE820404FF00006BF
:100F90004FF000074FF000084FF0000B21F0070161
:100FA000AC46ACE8C009ACE8C009ACE8C009ACE8A4
:100FB000C0098D467047000010B500F005F8001D0F
:100FC00010BD00BFB12B000000487047A40B0020EB
:100FD0002DE9F0411F46044603260168072A01F463
:100FE000006004DB08B116A505E016A503E008B112
:100FF00015A500E015A521F010002060A069C01E15
:10100000A0610FB1401EA0612046FFF762FB4FB107
:10101000D4E9012138469047206A401C2062C01C58
:10102000206206E0206AFAE7D4E9012115F8010BF5
:101030009047761EF8D22046FFF761FBBDE8F081AD
:101040004E414E006E616E00494E4600696E66006C
:101050002DE9F047814616468AB0334878440DC8DA
:101060008DE80D0030487844801C03AC0DC884E83E
:101070000D0041F69B300844372190FBF1F290FBC4
:10108000F1F5A5F1800501FB12041B3C02D5644279
:10109000012000E00020DFF890A080460027FA44FD
:1010A000AAF1BE0A0DE0E00709D03246684607EB18
:1010B00047010AEB810100F008FB8DE8070064108E
:1010C0007F1C002CEFD1184F7F44AC3F18E0E8079D
:1010D00014D007EB04100DF1180A90E80E008AE80E
:1010E0000E00C068F04201D198190890324606A956
:1010F00003A800F0EAFA03AB83E807006D10641C54
:10110000002DE4D132466946B8F1000F03A802D0A1
:1011100000F0C7FA01E000F0D8FAC9E90001C9F807
:1011200008200AB0BDE8F087E44B00000446AFF3A6
:1011300000802046FFF7D7F800487047840B002056
:101140004FF0013C50F8042B51F8043B9A4221D156
:10115000A2EB0C03934313EACC1317D150F8042BE2
:1011600051F8043B9A4215D1A2EB0C03934313EAC6
:10117000CC130BD150F8042B51F8043B9A4209D1FF
:10118000A2EB0C03934313EACC13DBD04FF0000027
:10119000704700BFD01A01BAB1FA81F101F018010D
:1011A00022FA01F0CB40C1F12001DBB2C0B2C01A7B
:1011B0002CFA01F3D11A914311EAC311E6D1704719
:1011C0005FEA400C08BF91F0000F4FEA8C234FEA12
:1011D000C12243EA51514FEA1C5018BF00F5F040BC
:1011E0004FEA300018BF41F000415FEA6C5C00F04C
:1011F0002980BCF1FF3F08BF40F080407047130CCE
:1012000006BF12044FF0100C4FF0000C130E04BF79
:1012100012020CF1080C130F04BF12010CF1040CA4
:10122000930F04BF92000CF1020CD30F04BF5200C5
:101230000CF1010C11464FF00002A0F11F00A0EBD1
:101240000C00704711F0004F08BF704731F00041AB
:101250003FF4D5AF0B0C06BF09044FF0100C4FF054
:10126000000C0B0E04BF09020CF1080C0B0F04BF9D
:1012700009010CF1040C8B0F04BF89000CF1020C66
:10128000CB0F04BF49000CF1010CCCF12003A0EB03
:101290000C0022FA03F302FA0CF241EA030100F116
:1012A0000100704720F07F4C80EA030023F07F4765
:1012B000ACEB070303F57C5300F0004003F1FF03A0
:1012C0002DE980494FEA154B09B44FEA144325EA4A
:1012D0000B4E24EA03480FF2042606EB13274908B5
:1012E0003E785FEA320203FB0667C7F5000707FB9B
:1012F00006F64FEA54374FEAD64606F1020607FBD8
:10130000066CCCF1005C4FEA1C472CEA074C07FB4B
:1013100006F40CFB06F504EB15464FEA961634BFAF
:1013200000204FF000404FEAD13706FB07FC4FEAA0
:101330001C4C0CFB0BF7D21B03FB0CF761EB0701FA
:101340000CFB0EF7B0EB074072EB17420CFB08F7F3
:1013500034BFA2EB0742B2EB074261EB17414FEA01
:101360000C444FEA910706FB07FC4FEA1C4C0CFBB0
:101370000BF7B0EBC74072EB573203FB0CF734BFEF
:10138000A2EBC742B2EBC74261EB57310CFB0EF741
:10139000B0EBC70072EB57720CFB08F734BFA2EB3F
:1013A000C702B2EBC70261EB5771039F4FEA81613D
:1013B00041EA921104EBCC044FEAD1374FEA826242
:1013C00006FB07FC42EA90124FEA80604FEA1C4C91
:1013D0000CFB0BF7D21B03FB0CF761EB07010CFBBB
:1013E0000EF7B0EB074072EB17420CFB08F734BF67
:1013F000A2EB0742B2EB074261EB17414FEA8C5573
:101400004FEA910704EB9C2406FB07FC4FEA1C4CB7
:101410000CFB0BF7B0EBC74072EB573203FB0CF73A
:1014200034BFA2EBC742B2EBC74261EB57310CFBB2
:101430000EF7B0EBC70072EB57720CFB08F734BF26
:10144000A2EBC702B2EBC70261EB577115EB4C255B
:101450004FEA816141EA92114FEA82624FEAD13745
:1014600042EA901206FB07FC44F100044FEA806058
:101470004FEA1C4C0CFB0BF7D21B03FB0CF761EB88
:1014800007010CFB0EF7B0EB074072EB17420CFBA9
:1014900008F734BFA2EB0742B2EB074261EB1741FA
:1014A00015EB1C154FEA813141EA92414FEA823235
:1014B00042EA90424FEA80304FEA0C7644F1000451
:1014C00048EA03434EEA0B484FF0000EB2EB080C1B
:1014D00071EB030724BF624639464EEB0E0E4FF008
:1014E000000B0018524149414BEB0B0BB2EB080CBF
:1014F00071EB03077BF1000B24BF624639464EEBCC
:101500000E0E4FF0000B0018524149414BEB0B0BF4
:10151000B2EB080C71EB03077BF1000B24BF6246B2
:1015200039464EEB0E0E51EA020718BF46F001068F
:1015300016EB0E7655F1000254F1000103D5BDE81B
:101540008901BDE80088BDE88901BDE80048B619F9
:10155000524141EB0101A3F10103704780807F7E7E
:101560007D7C7B7A79787776767574737271717019
:101570006F6E6E6D6C6C6B6A6A69686867666665CB
:101580006464636362616160605F5F5E5E5D5D5C59
:101590005C5B5B5A5A5959585857575656555555CA
:1015A0005454535352525251515050504F4F4F4E2A
:1015B0004E4D4D4D4C4C4C4B4B4B4A4A4A49494978
:1015C00048484847474747464646454545444444BA
:1015D000444343434342424242414141002B26D4CB
:1015E000770021D01CB54FEA370703B44FF0100045
:1015F0004FF010014FF000000FBCBDE810400BF1A0
:10160000010BBBF1010F08BF5FEA170722BF12F100
:10161000010211F101014FF0004143F1000300F01C
:10162000004043EA00007047F9D35708DAE746EA7A
:10163000064613F1400F4FEA16461FDD13F1200F47
:10164000DFBF16430A46002120335B42C8D0C3F1F6
:10165000200746EA064602FA07F74FEA164646EA28
:101660000706C3F1200722FA03F201FA07F721FA6D
:1016700003F14FF0000342EA0702B1E746EA02062F
:1016800046EA06464FEA164646EA0106BCBF46EA67
:101690000646360C4FF000034FF000024FF00001F9
:1016A0009EE72DE9C048934630B491E8380007C85A
:1016B00031EA400C48BF34EA430C03D5FFF7F2FD92
:1016C000FFF78CFFF0BCBDE800882DE9C0489346C9
:1016D00030B491E8380007C810F0804F08BF13F00D
:1016E000804F03D100F005F8FFF778FFF0BCBDE8AC
:1016F000008820F07F4780EA030023F07F4C07EB4F
:101700000C03A3F57C5300F00040A3F1FE0392F01C
:10171000000F00F0B38095F0000F00F077802DE906
:1017200001494FEA11404FEA144621EA004800FB04
:1017300006FC24EA064708FB06F607FB08F800FB50
:1017400007F718EB06484CEB164C4FEA124B18EB18
:1017500007484FEA15464CEB174022EA0B4E0BFBAD
:1017600006FC25EA06470EFB06F607FB0EFE0BFB02
:1017700007F71EEB064E4CEB164C4FF000061EEB27
:10178000074E4CEB174B18EB0B0840F1000018EB21
:101790000E0B58EB000840F100008F1A4FF00001CB
:1017A0003CBFC943661B14BFB5EB040C00213CBF12
:1017B000C943F61B4FEA17444EEA8E0E27EA04454A
:1017C0004FEA1C4704FB07622CEA074C05FB07F7AE
:1017D0000CFB05F604FB0CFC16EB074642EB17422C
:1017E00016EB0C4642EB1C421BEB060658EB0202C2
:1017F000414146EA9E0601D5BDE80189B61952412C
:1018000041EB0101A3F10103BDE801894FEA144551
:101810004FEA114724EA054621EA074C05FB07F485
:1018200006FB07F70CFB06F105FB0CFC11EB07416F
:1018300044EB17444FEA124711EB0C4144EB1C44B4
:1018400022EA074C05FB07F206FB07F70CFB06F63E
:1018500005FB0CFC16EB074642EB174216EB0C4659
:1018600042EB1C456A1854F1000148BF7047B61995
:10187000524141EB0101A3F10103704795F0000FC4
:1018800037D04FEA11424FEA144721EA024624EAD0
:10189000074C02FB07F106FB07F70CFB06F402FB03
:1018A0000CFC14EB074441EB17414FEA154714EBCE
:1018B0000C4441EB1C4125EA074C02FB07F506FBF3
:1018C00007F70CFB06F602FB0CFC16EB074645EB94
:1018D000174516EB0C4645EB1C42121951F100015D
:1018E00048BF7047B619524141EB0101A3F1010312
:1018F00070474FEA14454FEA114724EA054621EAAA
:10190000074C05FB07F106FB07F70CFB06F24FF04F
:10191000000605FB0CFC12EB074241EB174112EBF2
:101920000C4251EB1C4148BF7047921841EB01013A
:10193000A3F10103704700BFFEE7704710B5002216
:101940000221104600F026FD01220221102000F0A5
:1019500021FD02221146202000F01CFD032202215D
:10196000302000F017FD04220221402000F012FD7B
:1019700005220221502000F00DFD062202216020E8
:1019800000F008FD07220221702000F003FD08226C
:101990000421002000F0FEFC09220421102000F0A8
:1019A000F9FC0A220421202000F0F4FC0B2204217F
:1019B000302000F0EFFC0C220421402000F0EAFC73
:1019C00010BD000030B10749096841F48061054A43
:1019D000116005E00349096821F48061014A116042
:1019E00070470000003C024070B504460A460026DD
:1019F000092502B909E0012A01D1160205E0022AEF
:101A000001D1160201E04FF4407600F09FF8054640
:101A1000092D28D11548006820F44070134908604A
:101A200008460068304308600846006820F0F80067
:101A300008600846006844F0020108430B4908604A
:101A40000846006840F48030086000F07FF80546E2
:101A50000648006820F00200044908600846006853
:101A600020F0F8000860284670BD0000103C0240DD
:101A700009201349096801F48031B1F5803F01D193
:101A800001201CE00E49096801F0100109B106208F
:101A900015E00B49096801F4807109B102200EE0DC
:101AA0000749096801F0EF0109B1072007E004497F
:101AB000096801F0020109B1082000E0092070471F
:101AC0000C3C02400348006840F0004001490860B7
:101AD00070470000103C024030B502460C46092514
:101AE00000F034F80546092D19D10E48006820F49D
:101AF00040700C4908600846006840F400700860B7
:101B00000846006840F001000860146000F01EF80C
:101B100005460448006820F0010002490860284694
:101B200030BD0000103C02400548006800F0004055
:101B300028B1044802490C3908600348086070471E
:101B4000103C024023016745AB89EFCD08B5092061
:101B50000090FFF78DFF009002E0FFF789FF0090F3
:101B60009DF800000128F8D09DF8000008BDF0B5F0
:101B70000A4600210023002400BF3DE0012505FAAC
:101B800001F3156805EA03049C4234D105684F004F
:101B90000326BE40B543056015794E00B540066882
:101BA000354305601579012D02D01579022D16D126
:101BB00085684F000326BE40B543856055794E00C9
:101BC000B540866835438560456801268E40B5433B
:101BD0004560456896798E40B6B235434560C56824
:101BE0004F000326BE40B543C560D5794E00B540D1
:101BF000C6683543C560491C1029BFD3F0BDF0B598
:101C0000002300244D07ED0E02FA05F3CE1000F17B
:101C1000200555F826504E07F70E0F26BE40B54357
:101C2000CF1000F1200646F82750CE1000F1200515
:101C300055F8265045EA0304CE1000F1200545F87A
:101C40002640F0BD0246002013690B400BB1012075
:101C500000E000207047418370470183704700BF58
:101C6000FEE700001CB50121112000F055FC1C20EE
:101C7000009000208DF8040003208DF8050001205D
:101C80008DF8070069460648FFF771FF01200090B4
:101C900002208DF8070069460248FFF768FF1CBD67
:101CA000001002400000024010B5044614B10120AB
:101CB0002C4908702B480078002837D010212A487A
:101CC000FFF7C0FF78B108212748FFF7BBFF50B1ED
:101CD00004212548FFF7B6FF28B101212348FFF76B
:101CE000B1FF012822D10A2001F0E0F800201D49AF
:101CF000087010211C48FFF7A5FF08B9012010BD8E
:101D000008211948FFF79EFF08B90220F7E70421D0
:101D10001548FFF797FF08B90320F0E701211348A2
:101D2000FFF790FF01281BD10420E8E710210E489F
:101D3000FFF788FF012813D108210B48FFF782FF26
:101D400001280DD104210848FFF77CFF012807D1A5
:101D500001210648FFF776FF10B9012001490870FC
:101D60000020CCE7100000200010024000000240DC
:101D700070B504460D4616465B48808849F24131ED
:101D8000884205D05848808845F21031884214D1E5
:101D90005549488900F080F9201200F071F9E0B24D
:101DA00000F06EF95049888900F076F9281200F0A9
:101DB00067F9E8B200F064F98CE04B48808845F29E
:101DC0001051884220D14849488900F065F9201215
:101DD00000F056F944494989491C88B200F05CF981
:101DE000E0B200F04DF94049888900F055F9281219
:101DF00000F046F93C498989491C88B200F04CF949
:101E0000E8B200F03DF965E03748808841F663119B
:101E1000884228D13448807920B933480088401E50
:101E2000001B84B23049488900F036F9201200F0D6
:101E300027F9E0B200F024F9201200F021F9E0B215
:101E400000F01EF92849888900F026F9281200F0D0
:101E500017F9E8B200F014F9281200F011F9E8B20D
:101E600000F00EF936E02048808846F604018842EA
:101E70001DD11D488079012804D11B480088401ECF
:101E8000001B84B21849488900F006F9201200F0BE
:101E9000F7F8E0B200F0F4F81349888900F0FCF894
:101EA000281200F0EDF8E8B200F0EAF812E00E486F
:101EB0008079012804D10C480088401E001B84B2A0
:101EC00009494889214600F0F3F8074988892946DD
:101ED00000F0EEF804480089044908804FF0D8402B
:101EE000A0F8806070BD0000740300207E00006CCC
:101EF0002DE9F84F80460E4617461C46B34620464D
:101F0000E31704EB5373DB1021464FEAE47C04EB48
:101F10005C7C4FEAEC0CA4EBCC0CBCF1000F02D0C3
:101F20004FF0010C01E04FF0000C6344224604EB3B
:101F3000D27C4FEA6C0C03FB0CF3DBB20093A7F1ED
:101F40002000C7B2002556E00C2C07D107EB470054
:101F50002B4901EB800010F8059013E0102C05D1FF
:101F6000284800EB071010F805900BE0182C07D15B
:101F700007EBC700244901EB800010F8059001E051
:101F8000BDE8F88F4FF0000A2FE009F0800030B173
:101F90001E48028831464046FFF7EAFE07E00A98ED
:101FA00028B91B48028831464046FFF7E1FE4FEA58
:101FB00049604FEA1069701C86B216484088B042EA
:101FC00000DCDDE7A6EB0B00A0420AD15E4608F17B
:101FD00001001FFA80F80F480088404500DCCFE779
:101FE00006E00AF1010000F0FF0ABAF1080FCCDBAD
:101FF00000BF681CC5B200988542A5DB00BFBFE7E3
:10200000AE3B0008224000081246000812000020E3
:1020100014000020740300202DE9F84704460D4603
:1020200090469946DDE9096704F0FF0A08EB0400D1
:102030001FFA80F809EB05001FFA80F916E0444505
:1020400002DB5446A81985B24D4500DB14E00020A0
:1020500000903A78334629462046FFF749FF30463C
:1020600006EBD07104EB61018CB27F1C38787E28BE
:1020700002DC38782028E2DA00BFBDE8F8870000EB
:1020800001B5BDF800000090BDF8000001490880CE
:1020900008BD00008000006C01B5BDF80000009094
:1020A000BDF800000149088008BD00007E00006CFA
:1020B000034A10804FF0D842A2F880107047000009
:1020C0007E00006C1CB50121202000F025FA4FF4A1
:1020D000C060009001208DF8040000208DF80600FB
:1020E00003208DF8050001208DF80700694604489B
:1020F000FFF73DFD4FF4C0610148FFF7AEFD1CBD89
:102100000014024000BFFEE77047000070B50021D8
:1021100000230F22C4781CB3174C246804F4E06435
:10212000C4F5E064C4F30721C1F10404E3B20A4139
:1021300044789C40E1B28478144021430C07210E7E
:102140000E4C05786155047804F01F050124AC405D
:1021500005786D11AD0005F1E025C5F8004109E0F5
:10216000047804F01F050124AC40054D0678761173
:1021700045F8264070BD00000CED00E000E400E0F2
:1021800080E100E002490143024A1160704700000B
:102190000000FA050CED00E070B5002419E004F130
:1021A000B001C8B2002100F07DF90021084600F01E
:1021B00079F90021102000F075F9002505E00121D2
:1021C000002000F06FF9681CC5B2802DF7DB601CA1
:1021D000C4B2082CE3DB70BD1CB50121082000F05F
:1021E0009BF94FF4FC70009001208DF80400002052
:1021F0008DF8060003208DF8050001208DF80700FA
:1022000069465548FFF7B3FC4FF4FC715248FFF79D
:1022100024FD0320009069465048FFF7A8FC0321E5
:102220004E48FFF71AFD4FF40040009069464C48B5
:10223000FFF79DFC4FF400414948FFF70EFD1021C8
:102240004548FFF70AFD642000F030FE10214248A7
:10225000FFF701FD642000F029FE10213E48FFF742
:10226000FCFC0021AE2000F01DF90021084600F022
:1022700019F90021102000F015F90021402000F08C
:1022800011F90021812000F00DF90021CF2000F08C
:1022900009F90021A12000F005F90021C82000F073
:1022A00001F90021A62000F0FDF80021A82000F08F
:1022B000F9F800213F2000F0F5F80021D32000F0CC
:1022C000F1F80021084600F0EDF80021D52000F0DB
:1022D000E9F80021802000F0E5F80021D92000F085
:1022E000E1F80021F12000F0DDF80021DA2000F013
:1022F000D9F80021122000F0D5F80021DB2000F0F1
:10230000D1F80021402000F0CDF80021202000F07D
:10231000C9F80021022000F0C5F800218D2000F04E
:10232000C1F80021142000F0BDF80021A42000F025
:10233000B9F80021A62000F0B5F80021AF2000F088
:10234000B1F80021AF2000F0ADF8FFF725FF002124
:10235000084600F007F81CBD000C024000080240CF
:102360000018024070B504460D4605F1B001C8B230
:10237000002100F097F8102141EA1410002100F02C
:1023800091F804F00F0141F00100002100F08AF8FB
:1023900070BD00002DE9F04180460E46154600272D
:1023A00031464046FFF7DEFF00240AE0124A02EB06
:1023B0008511085D012100F075F8781CC7B2601C1A
:1023C000C4B2102CF2DB701CC1B24046FFF7CAFF4A
:1023D00000240CE06900491C074A02EB4111085D2A
:1023E000012100F05FF8781CC7B2601CC4B2102C49
:1023F000F0DBBDE8F0810000160000202DE9F0417F
:1024000007460E46904600250024A8F12000C5B2DC
:102410007F2F02DD0027B01CC6B231463846FFF7D9
:10242000A1FF002408E004EB05110F4A505C0121D4
:1024300000F038F8601CC4B2082CF4DB701CC1B288
:102440003846FFF78FFF002409E004EB051108313F
:10245000054A505C012100F025F8601CC4B2082C2C
:10246000F3DBBDE8F0810000965500082DE9F0414E
:1024700004460F46154600260EE0AA5D3946204662
:10248000FFF7BCFF04F10800C4B2782C02DD002481
:10249000B81CC7B2701CC6B2A85D0028EDD1BDE85B
:1024A000F081000070B504460E4626B12021184880
:1024B000FFF7D3FB03E020211548FFF7CCFB0821F1
:1024C0001348FFF7C8FB002517E040211048FFF72D
:1024D000C2FB04F0800020B180210D48FFF7BDFB56
:1024E00003E080210A48FFF7B6FB40210848FFF7C8
:1024F000B4FB6006040E681CC5B2082DE5DB08219C
:102500000348FFF7AAFB20210148FFF7A6FB70BD97
:10251000000C02407047000029B1064A12680243CD
:10252000044B1A6004E0034A12688243014B1A60AC
:10253000704700003038024029B1064A1268024351
:10254000044B1A6004E0034A12688243014B1A608C
:10255000704700004038024029B1064A1268024321
:10256000044B1A6004E0034A12688243014B1A606C
:10257000704700002038024029B1064A1268024321
:10258000044B1A6004E0034A12688243014B1A604C
:10259000704700004438024029B1064A12680243DD
:1025A000044B1A6004E0034A12688243014B1A602C
:1025B0007047000024380240F0B5002100220024BA
:1025C000022500260223324F3F6807F00C0121B19B
:1025D000042905D0082937D105E02E4F076036E0E1
:1025E0002D4F076033E02A4F3F1F3F68C7F38056E7
:1025F000274F3F1F3F6807F03F036EB1264FB7FBE1
:10260000F3F7DFF88CC0ACF1040CDCF800C0CCF3BD
:10261000881C07FB0CF40CE01E4FB7FBF3F7DFF848
:1026200070C0ACF1040CDCF800C0CCF3881C07FBD4
:102630000CF4174F3F1F3F68C7F301477F1C7D0015
:10264000B4FBF5F7076002E0124F076000BF00BF60
:102650000F4F3F6807F0F0010909104F7A5C0768D7
:10266000D74047600A4F3F6807F4E051890A0B4F93
:102670007A5C4768D7408760054F3F6807F4604140
:10268000490B064F7A5C4768D740C760F0BD000031
:10269000083802400024F40000127A006003002091
:1026A00001461C48814201D2002070471A488142ED
:1026B00001D20820F9E71948814201D21020F4E73D
:1026C0001748814201D21820EFE71648814201D213
:1026D0002020EAE71448814201D22820E5E7134888
:1026E000814201D23020E0E71148814201D23820F6
:1026F000DBE71048814201D24020D6E70E488142F4
:1027000001D24820D1E70D48814201D25020CCE7C8
:102710005820CAE7004000080080000800C00008F8
:10272000000001080000020800000408000006087C
:102730000000080800000A0800000C0800000E084D
:1027400001460868704700002DE9F04704460E4630
:1027500017464FF009080025A946B4F1006F02D3CF
:1027600004F0030008B1BDE8F087FFF7DDF90020B1
:10277000FFF728F9254604EB87091848854215D24A
:1027800011E02846FFF7DCFF401C58B12846FFF750
:1027900087FF82460221FFF727F98046B8F1090F2B
:1027A00001D002E02D1D4D45EBD300BFB8F1090F5C
:1027B0000CD108E020463168FFF78EF9092800D0D7
:1027C00003E0241D361D4C45F4D300BF0120FFF764
:1027D000F9F8FFF777F900BFC5E700000000FF1F19
:1027E000704700000CB5002001900090344800684C
:1027F00040F480303249086000BF3148006800F47E
:10280000003000900198401C0190009818B9019880
:10281000B0F5A04FF1D12A48006800F4003010B1A3
:102820000120009001E0002000900098012846D18E
:1028300023484030006840F0805021494031086012
:102840002048006840F440401E4908601C48083099
:1028500000681B49083108600846006840F40040E1
:1028600008600846006840F4A05008601648091F38
:102870000860081F006840F08070091F086000BFF2
:102880000F48006800F000700028F9D040F2057091
:102890000E4908600A480830006820F00300084923
:1028A000083108600846006840F00200086000BF78
:1028B00003480830006800F00C000828F8D10CBD6F
:1028C000003802400070004008544007003C0240BD
:1028D000042808D14FF0E021096941F004014FF0CC
:1028E000E022116107E04FF0E021096921F00401C5
:1028F0004FF0E022116170477047000010B5154895
:10290000006840F47000134908601348006840F004
:1029100001001149086000200F49083108600E4885
:1029200000680E4908400C4908600D48091D086000
:10293000081F006820F48020091F08600020064955
:102940000C310860FFF74EFF4FF0006001498039FD
:10295000086010BD88ED00E000380240FFFFF6FE81
:102960001030002410B50121094800F052F868B178
:102970000848008840F400400649088001210448C6
:1029800000F038F80021024800F037F810BD0000D0
:1029900000140040560300207FB505460C46012177
:1029A0002020FFF7C9FD0195ADF800400020ADF8EB
:1029B0000800ADF8020069460D4800F047F8012212
:1029C00011460B4800F036F80121094800F015F8CF
:1029D00037208DF80C0000208DF80D0002208DF8B6
:1029E0000E0001208DF80F0003A8FFF78FFB7FBDBD
:1029F00000140040CA430282704721B1028842F0AD
:102A00000102028004E002884FF6FE731A40028041
:102A1000704730B50246002000230024158A05EADD
:102A20000103958905EA010413B10CB1012000E00E
:102A3000002030BD1AB183890B43838102E0838972
:102A40008B438381704741627047000000220288F7
:102A5000184B98420ED0184B98420BD0B0F1804FD3
:102A600008D0164B984205D0154B984202D0154B12
:102A7000984204D14FF68F731A404B881A43124B79
:102A8000984207D0114B984204D04FF6FF431A40AA
:102A90000B891A4302804B68C3620B880385054B80
:102AA000984202D0044B984201D18B7A03860123CD
:102AB0008382704700000140000401400004004090
:102AC00000080040000C00400010004000140040CE
:102AD00010B540F225511A4800F0E5F838B318480F
:102AE00000F09AF9C4B21748006808B9012000E064
:102AF0000020144908601448008800F40040B0B970
:102B000011480088B0F5804F12DA00210F48FFF716
:102B10009AFF0D48008818B901210C48FFF76DFF96
:102B200009490888411C084A118009490C5405E0EC
:102B30000548008840F400400349088010BD0000AB
:102B400000480040A4824242560300200014004086
:102B50000010002000200949086009E00020084911
:102B6000064A1268885405480068401C03490860FA
:102B700002480068B0F5804FF0D370470000002095
:102B80000010002021B1828942F40052828104E0C9
:102B900082894DF6FF731A408281704710B5044652
:102BA0003248844208D101211020FFF7F5FC0021B2
:102BB0001020FFF7F1FC57E02D48844209D1012194
:102BC0004804FFF7C9FC00214FF40030FFF7C4FCB4
:102BD0004AE02848844209D101218804FFF7BCFC5F
:102BE00000214FF48020FFF7B7FC3DE022488442EB
:102BF00009D10121C804FFF7AFFC00214FF40020E8
:102C0000FFF7AAFC30E01D48844209D101210805E4
:102C1000FFF7A2FC00214FF48010FFF79DFC23E09A
:102C20001748844208D101212020FFF7B5FC00217C
:102C30002020FFF7B1FC17E01248844209D101219E
:102C40008807FFF789FC00214FF08040FFF784FCE4
:102C50000AE00D48844207D101214005FFF77CFCC2
:102C600000216005FFF778FC10BD00000010014056
:102C70000044004000480040004C0040005000402C
:102C80000014014000780040007C00400246002013
:102C9000B1F5007F00D100BF13880B400BB10120BC
:102CA00000E00020704770B5024600240023002594
:102CB000002040F66A16B14200D100BFC1F34215B0
:102CC00001F01F03012606FA03F3012D02D19689B4
:102CD000334006E0022D02D1168A334001E0968A85
:102CE00033400C12012606FA04F41688344013B15E
:102CF0000CB1012000E0002070BDF0B503460024B7
:102D000000260025002040F66A17B94200D100BF16
:102D10001846C1F3421401F01F06012707FA06F511
:102D2000012C01D10C3004E0022C01D1103000E064
:102D300014301AB107682F43076002E00768AF43F9
:102D40000760F0BD2DE9FF4705460E460024A14669
:102D500000BFA046B08900B100BF2C8A24F44054C3
:102D6000F08804432C82AC8941F20C608443B08823
:102D700031890843718908430443AC81AC8A24F447
:102D80004074B0890443AC826846FFF715FC2048C4
:102D9000854202D01F48854202D1DDF80C9001E047
:102DA000DDF80890A88900F4004040B109EBC900A3
:102DB00000EB091031684900B0FBF1F707E009EBBF
:102DC000C90000EB091031688900B0FBF1F76420FD
:102DD000B7FBF0F004012009642101FB1078A889F9
:102DE00000F4004040B1322000EBC800B0FBF1F02D
:102DF00000F00700044308E0322000EB08106421D3
:102E0000B0FBF1F000F00F0004432C81BDE8FF8718
:102E1000001001400014014001468888C0F30800FA
:102E20007047C1F308028280704700BFFEE703B419
:102E300001984100009850EAC12018BF04204A0DB3
:102E400018BF40F0010040F2FF72B2EB515F08BFC3
:102E500040F00200012808BF052002B0704730385A
:102E60000A2801D2012070470020704700BF704738
:102E700010B504466FF00400FFF72AFDE11704EBDC
:102E80005171C1F3C701074A11701046007800EB79
:102E90004001C1EBC0104FF6FF7101EAC0000249CA
:102EA000088010BD580300205A03002070B5044666
:102EB0004FF4077094FBF0F0C6B24FF4077094FB28
:102EC000F0F100FB114085B205E04FF4077000F00F
:102ED00009F8701EC6B2002EF7D115B1284600F0D1
:102EE00001F870BD0146114A12884A434FF0E023B1
:102EF0005A6100229A611A46126942F001021A616F
:102F000000BF4FF0E022106900F001021AB100F496
:102F10008032002AF5D04FF0E022126922F001023F
:102F20004FF0E0231A6100229A6170475A03002093
:102F300070B5044600250948008800F4004058B1E7
:102F4000002006490988C1F30E01054A5054214664
:102F50001046FDF789FB0546284670BD5603002044
:102F60000010002010B5012408A000F017FD4FF458
:102F70007A70FFF79BFF322205A106A000F01AF835
:102F8000044608A0FDF7F0F9204610BD2B2B2B00BE
:102F90004F4B000041542B4349504D4F44453D3069
:102FA00000000000CDCBB3F6CDB8B4AB4F4B0D0A4B
:102FB000000000002DE9F04106460D4614460027AA
:102FC000002013490880314612A000F0E7FCE5B16B
:102FD000DCB113E00A20FFF769FF0D48008800F418
:102FE000004058B12846FFF7A3FF20B129460BA0A7
:102FF000FDF7BAF906E0002005490880601E80B29E
:103000000400E7D100BF04B901273846BDE8F081CC
:103010005603002025730D0A0000000061636B3A1F
:1030200025730D0A000000007CB505460C466E466F
:10303000002013490880294612A000F0AFFCECB133
:1030400017E00A20FFF732FF0D48008800F4004027
:1030500078B100200A490988C1F30E010A4A505488
:103060001646314609A0FDF77FF900200449088083
:1030700003E0601E80B20400E3D100BF30467CBD97
:1030800056030020257300000010002061636B3A96
:1030900025730D0A0000000010B5322227A128A0D8
:1030A000FFF788FF29A0FDF75FF914222CA12EA0BD
:1030B000FFF780FF2EA0FDF757F94FF47A70FFF766
:1030C000F5FE4FF47A70FFF7F1FE4FF47A70FFF7D8
:1030D000EDFE4FF47A70FFF7E9FE00BF4FF4167271
:1030E00027A12AA0FFF766FF0028F7D12FA0FDF740
:1030F0003BF9142211A131A0FFF75CFF32A0FDF7CC
:1031000033F900BFC82235A136A0FFF753FF0028CE
:10311000F8D13FA0FDF728F9C82208A140A0FFF789
:1031200049FF43A0FDF720F9322204A145A0FFF793
:1031300041FF47A0FDF718F910BD00004F4B0000FC
:1031400041542B43574D4F44453D3100B9A4D7F767
:10315000C4A3CABDC9E8D6C34F4B0D0A0000000086
:10316000726561647900000041542B525354000091
:1031700045535038323636B8B4CEBB4F4B0D0A00EB
:103180005749464920474F542049500041542B434A
:10319000574A41503D224C494E424F222C227177D2
:1031A0006572747975696F7022000000C1ACBDD37F
:1031B000574946494F4B0D0A0000000041542B432C
:1031C00049504D55583D3000C9E8D6C3B5A5C2B7E2
:1031D000C1ACBDD34F4B0D0A00000000434F4E4E13
:1031E0004543540041542B43495053544152543D9C
:1031F00022544350222C223139322E3136382E318E
:1032000036382E323039222C31323334000000006F
:10321000B7FECEF1C6F7C1ACBDD34F4B0D0A0000CF
:1032200041542B4349504D4F44453D31000000006F
:10323000C9E8D6C3CDB8B4ABC4A3CABD4F4B0D0AC1
:103240000000000041542B43495053454E440000B8
:10325000CFD6D4DABFC9D2D4BFAACABCCDB8B4AB1A
:10326000CAFDBEDDC1CBA3ACB7FECEF1C6F7BFC968
:10327000D2D4B7A2CBCDCAFDBEDDB8F84D43550DB3
:103280000A00000000BF054A128802F04002002A2E
:10329000F9D0C2B2014B9A80704700000010014083
:1032A00010B50446206807490840B0F1005F08D116
:1032B0006068054908602068FDF721F80248006849
:1032C000804710BD0000FE2F700300202DE9F05F45
:1032D0000746884691460025BB464446AA461DE05F
:1032E000E0780606A07846EA0046607846EA0026BE
:1032F00020780643241D2846691C8DB20C4941F8EC
:103300002060B5F5007F07D100254FF400725846C4
:10331000FFF71AFA0BF5006B0AF1040ACA45DFD36E
:1033200025B12A4602495846FFF70EFABDE8F09F3C
:10333000840300201CB500BF002700254FF4A060C7
:10334000FEF720FFA820FFF793FD4FF4E12000F0E7
:103350004DFB4FF4E13000F08BFBFEF7B3FEFEF7C0
:1033600081FCFEF739FFFEF717FFFEF7E7FAFFF7DC
:10337000F9FDFFF791FE3221F3A0FFF755FEFFF7AD
:10338000E9FB0020FC4908800120FC490860FC4959
:10339000C1F8A802E9E2F848008800F400400028DB
:1033A00071D0F548008820F40040F64908800846AE
:1033B0000088B0F5967F41DD08460088F249088014
:1033C00008460188F1A0FCF7CFFF0020F44908600F
:1033D0000CE0F448F2490968405CF349F04A12688D
:1033E0008854EF480068401CED490860EC480068CC
:1033F000E54909888842ECD3ECA0FCF7B5FFEFA0C3
:10340000FCF7B2FF0020E64908600BE0E648E44A1A
:103410001268815CF4A0FCF7A7FFE1480068401C3B
:10342000DF490860DE480068D74909888842EDD343
:10343000EEA0FCF799FFE1A0FCF796FFD1480088C9
:1034400008283AD10020D649086031E0D548D4494F
:103450000968405CE6490968D14A1268895C88427B
:103460001ED1CF48006807281DD1E2A0FCF77CFFE1
:10347000E648406800F07F40B0F1006F04D1E348B7
:10348000FFF70EFF0AE08BE0E1A0FCF76DFFFEF70F
:1034900083FEE6A203210020FEF7E8FF072502E0F5
:1034A000FFF758FB08E0BE480068401CBC490860B4
:1034B000BB4800680828C9D300BFB2480088092863
:1034C0006BD10020B649086062E0B648B44909688B
:1034D000405CDB490968B24A1268895C88424FD176
:1034E000AF48006808284ED1A7480088B0F5967FFD
:1034F00030DDD4A0FCF738FFFEF74EFEAA48406846
:1035000000F07F40B0F1006F1AD1D3A20321002058
:10351000FEF7ACFF9C480288A349BC48FFF7D6FEE3
:10352000FEF73AFED2A203210020FEF79FFFD6A0AD
:10353000FCF71AFF94480188D7A0FCF715FF06E0B6
:10354000FEF72AFED9A203210020FEF78FFFFFF726
:1035500001FB13E0DAA0FCF707FFDFA010210B4608
:10356000C822CDE90010D2211E20FEF755FDFEF73E
:1035700013FED9A203210020FEF778FF072502E001
:10358000FFF7E8FA08E086480068401C84490860B4
:1035900083480068092898D300BF00207649088036
:1035A000701CC6B20A20FFF781FC1E2E10D1734892
:1035B000006808B9012000E000207049086000267A
:1035C00035B1681EC5B21DB9FEF7E6FDFEF7B6F9C6
:1035D0000020FEF769FB0446042C4FD16A4800889E
:1035E000B0F5967F35DD97A0FCF7BEFE9AA01021BE
:1035F0000B46C822CDE90010D2211E20FEF70CFD9B
:10360000FEF7CAFD94A203210020FEF72FFF5E48BB
:10361000028865497D48FFF759FE95A010210B46A9
:10362000C822CDE90010D2211E20FEF7F5FCFEF7DE
:10363000B3FD8FA203210020FEF718FF92A0FCF734
:1036400093FE5148018894A0FCF78EFEFFF782FAA2
:1036500013E09BA0FCF788FE9FA010210B46C82218
:10366000CDE90010D2211E20FEF7D6FCFEF794FD16
:1036700099A203210020FEF7F9FE0725022C2BD189
:10368000AFB197A0FCF770FE99A010210B46C8229D
:10369000CDE90010D2211E20FEF7BEFCFEF77CFD16
:1036A00093A203210020FEF7E1FE002713E096A07D
:1036B000FCF75AFE88A010210B46C822CDE9001065
:1036C000D2211E20FEF7A8FCFEF766FD82A2032190
:1036D0000020FEF7CBFE0725032C22D145A0FCF7E6
:1036E00043FE4A48406800F07F40B0F1006F03D1CC
:1036F0004648FFF7D5FD13E045A0FCF735FE4BA08B
:1037000010210B46C822CDE90010D2211E20FEF761
:1037100083FCFEF741FD45A203210020FEF7A6FE33
:103720000725012C0DD17EA0FCF71EFE83484068C2
:1037300000F07F40B0F1005F04D18048FFF7B0FD9A
:1037400012E112E1FCE000004553503832363620D9
:103750007375636365737366756C6C792073656EDE
:1037600074206461746120746F20746865207365CF
:10377000727665722121210056030020A482424204
:10378000008042420400002006000020CAFDBEDD89
:10379000B4F3D0A13D25644279746573720A0000C8
:1037A000000000200010002058A20020415050646A
:1037B000617461CAFDBEDDA3BA0D0A002A2A2A2A55
:1037C0002A2A2A2A2A2A2A2A2A2A2A2A415050CA56
:1037D000FDBEDD2A2A2A2A2A2A2A2A2A2A2A2A2A2F
:1037E0002A2A2A0D0A000000256300000D0A0000A5
:1037F00008000020BFAACABCD6B4D0D0464C415362
:1038000048D3C3BBA7B4FAC2EB0000000000010814
:10381000B7C7464C415348D3A6D3C3B3CCD0F22C40
:10382000CEDEB7A8D6B4D0D0210D0A00496C6C65A5
:1038300067616C20464C41534820415050210000A4
:103840000C000020BFAACABCB8FCD0C2B9CCBCFED8
:103850002E2E2E0D0A000000436F7079696E6720CE
:1038600041505032464C4153482E2E2E000000004D
:10387000436F7079204150502053756363657373B3
:103880006564212100000000B9CCBCFEB8FCD0C2A8
:10389000CDEAB3C9210D0A00B9CCBCFEB4F3D0A166
:1038A000CEAA256442797465730D0A00496C6C6573
:1038B00067616C20464C4153482041505021200004
:1038C000C3BBD3D0BFC9D2D4B8FCD0C2B5C4B9CC65
:1038D000BCFE210D0A0000004E6F20415050210017
:1038E000B9CCBCFEC7E5B3FDCDEAB3C9210D0A00D2
:1038F0004150502045726173652053756363657351
:103900007365642100000000C3BBD3D0BFC9D2D40B
:10391000C7E5B3FDB5C4B9CCBCFE210D0A0000005B
:10392000BFAACABCD6B4D0D05352414DD3C3BBA753
:10393000B4FAC2EB21210D0A0000000000100020A3
:103940000AA0FCF711FD10A010210B46C822CDE9FA
:103950000010D2211E20FEF75FFBFEF71DFC0AA21D
:1039600003210020FEF782FD072514E5B7C7535257
:10397000414DD3A6D3C3B3CCD0F22CCEDEB7A8D65C
:10398000B4D0D0210D0A0000496C6C6567616C20D1
:103990005352414D20415050210000000FB438B522
:1039A00005A800900F48009A0499FCF7CBFC002072
:1039B00000900C48FCF76AFE85B200240DE000BFC1
:1039C00040210948FFF762F90028F9D00548015D58
:1039D0000548FFF726FA601C84B2AC42EFDB38BC26
:1039E0005DF814FB00A000200048004010B586B030
:1039F000044601210846FEF78FFD01211020FEF745
:103A0000BBFD072209211848FEF7F9F807220A2111
:103A10001548FEF7F4F84FF4C060049002208DF8CA
:103A200014008DF8150000208DF8160001208DF887
:103A3000170004A90C48FEF79AF800940020ADF88E
:103A40000400ADF80600ADF80800ADF80C000C203D
:103A5000ADF80A0069460548FFF774F901210348EB
:103A6000FFF790F806B010BD0000024000100140C2
:103A700010B588B0044601210220FEF74DFD01215A
:103A80008804FEF759FD07220A212B48FEF7B7F8F4
:103A900007220B212848FEF7B2F82848FFF77EF8E6
:103AA0004FF44060059002208DF818008DF8190041
:103AB00000208DF81A0001208DF81B0005A91E4872
:103AC000FEF755F801940020ADF80800ADF80A00A3
:103AD000ADF80C00ADF810000C20ADF80E0001A9F7
:103AE0001648FFF72FF901211448FFF74BF8012280
:103AF00040F225511148FFF700F927208DF81C00EE
:103B000002208DF81D0003208DF81E0001208DF885
:103B10001F0007A8FEF7FAFA42F2CF0142F20F7037
:103B2000FEF73AFF00200649088000210548FEF70D
:103B300064FF08B010BD00000004024000480040CF
:103B4000560300200014004010B500290AD0087860
:103B5000002807D005487844FDF7F2FA002801D084
:103B6000002010BD0248784410BD00003E21000036
:103B70003621000010B500290AD00878002807D0A7
:103B800005487844FDF7DCFA002801D0002010BD7C
:103B90000248784410BD00002E21000026210000BC
:103BA0004FF04070E1EE100A7047FDF76FB800006B
:103BB00000000000000000000000000000003F4086
:103BC0000000000000000000300040003000400015
:103BD000000009000BC03D000BC03D00090018C0EB
:103BE00024407FE0224031800000180024C01B00E8
:103BF0000D803240018003801C4027401C8007401C
:103C00000040100060000000000000000000000004
:103C1000000000001F802040402000004020204085
:103C20001F8000000000090006001F800600090038
:103C30000000040004003F800400040000000010A5
:103C40000060000000000000000004000400040008
:103C5000040004000000000000400000000000001C
:103C60000000002001C006003800400000001F8056
:103C70002040204020401F800000000010403FC036
:103C800000400000000018C021402240244018409D
:103C9000000010802040244024401B8000000200CF
:103CA0000D0011003FC0014000003C802440244032
:103CB0002440238000001F8024402440344003809F
:103CC00000003000200027C03800200000001B80CA
:103CD0002440244024401B8000001C0022C02240BD
:103CE00022401F800000000000000840000000008B
:103CF0000000000000000460000000000000000060
:103D000004000A0011002080404009000900090059
:103D100009000900000000004040208011000A0056
:103D200004001800200023402400180000001F8019
:103D30002040274029401F400000004007C03900B4
:103D40000F0001C0004020403FC0244024401B80A1
:103D500000001F8020402040204030800000204094
:103D60003FC0204020401F80000020403FC0244032
:103D70002E4030C0000020403FC024402E003000C4
:103D800000000F00108020402240338002002040BD
:103D90003FC0040004003FC02040204020403FC0FE
:103DA0002040204000000060202020203FC0200054
:103DB000200020403FC024400B0030C02040204065
:103DC0003FC020400040004000C03FC03C0003C056
:103DD0003C003FC0000020403FC00C4023003FC0DB
:103DE00020001F802040204020401F8000002040F5
:103DF0003FC024402400180000001F8021402140C3
:103E000020E01FA0000020403FC02440260019C031
:103E1000004018C02440244022403180000030007F
:103E200020403FC020403000000020003F80004084
:103E300000403F80200020003E0001C00700380005
:103E40002000380007C03C0007C0380000002040B8
:103E500039C0060039C0204000002000384007C0AB
:103E6000384020000000304021C02640384020C0AB
:103E70000000000000007FE0402040200000000023
:103E800070000C0003800040000000004020402033
:103E90007FE0000000000000200040002000000043
:103EA00000000010001000100010001000100000B2
:103EB00000004000000000000000000002800540FB
:103EC000054003C0004020003FC004400440038080
:103ED0000000000003800440044006400000000091
:103EE0000380044024403FC00040000003800540A0
:103EF000054003400000000004401FC0244024404F
:103F00002000000002E0055005500650042020402B
:103F10003FC00440040003C000400000044027C02C
:103F200000400000000000100010041027E0000016
:103F3000000020403FC00140070004C00440204072
:103F400020403FC000400040000007C0040007C000
:103F5000040003C00000044007C00440040003C084
:103F6000004000000380044004400380000004106F
:103F700007F0045004400380000000000380044068
:103F8000045007F00010044007C002400400040081
:103F90000000000006400540054004C0000000008D
:103FA00004001F800440004000000400078000401F
:103FB000044007C000400400070004C00180060060
:103FC0000400060001C0070001C006000000044014
:103FD00006C0010006C0044000000410071004E001
:103FE0000180060004000000044005C006400440B3
:103FF00000000000000004007BE040200000000002
:1040000000000000FFF000000000000040207BE006
:10401000040000000000400080004000200020005C
:104020004000000000000000000000000000000050
:1040300000000000000000001FCC000C0000000089
:104040000000000008003000600008003000600040
:104050000000022003FC1E20022003FC1E20022080
:10406000000000000E1811043FFF10840C780000BF
:1040700000000F0010840F3800C007781884007803
:10408000000000780F8410C411240E9800E400840E
:104090000008080068007000000000000000000038
:1040A000000000000000000007E018182004400293
:1040B0000000000040022004181807E00000000083
:1040C00000000240024001800FF0018002400240E7
:1040D00000000080008000800FF8008000800080D9
:1040E00000000001000D000E0000000000000000B4
:1040F00000000000008000800080008000800080C0
:1041000000800000000C000C000000000000000017
:104110000000000000060018006001800600180082
:104120002000000007F0080810041004080807F039
:1041300000000000080408041FFC00040004000044
:10414000000000000E0C10141024104411840E0CFA
:10415000000000000C1810041104110412880C70E7
:104160000000000000E00320042408241FFC0024B9
:10417000000000001F9810841104110410881070B2
:104180000000000007F0088811041104188800706E
:10419000000000001C00100010FC13001C001000A8
:1041A000000000000E3811441084108411440E38B1
:1041B000000000000700088C10441044088807F035
:1041C0000000000000000000030C030C00000000D1
:1041D00000000000000000010106000000000000D7
:1041E00000000000008001400220041008081004B4
:1041F00000000220022002200220022002200220D1
:104200000000000010040808041002200140008093
:10421000000000000E001200100C106C10800F0047
:10422000000003E00C1813E4142417C4082807D076
:1042300000000004003C03C41C40074000E4001CD4
:10424000000410041FFC1104110411040E880070F6
:10425000000003E00C1810041004100410081C10D7
:10426000000010041FFC100410041004080807F0DC
:10427000000010041FFC1104110417C410040818D6
:10428000000010041FFC1104110017C010000800EA
:10429000000003E00C181004100410441C780040C7
:1042A000000010041FFC10840080008010841FFC9C
:1042B00010040000100410041FFC1004100400007F
:1042C000000000030001100110011FFE100010008B
:1042D000000010041FFC110403801464181C100457
:1042E000000010041FFC1004000400040004000C73
:1042F000000010041FFC1F0000FC1F001FFC100426
:10430000000010041FFC0C04030000E010181FFC48
:10431000100007F00808100410041004080807F043
:10432000000010041FFC10841080108010800F000B
:10433000000007F0081810241024101C080A07F2C7
:10434000000010041FFC1104110011C011300E0CEC
:10435000000400000E1C11041084108410441C384A
:1043600000001800100010041FFC100410001800BA
:10437000000010001FF810040004000410041FF8CF
:10438000100010001E0011E0001C007013801C00C3
:1043900010001FC0103C00E01F0000E0103C1FC0D8
:1043A00000001004180C163401C001C01634180C9B
:1043B000100410001C00130400FC13041C00100067
:1043C00000000804101C1064108413041C0410184E
:1043D00000000000000000007FFE4002400240029A
:1043E0000000000030000C0003800060001C00038F
:1043F000000000004002400240027FFE000000007A
:1044000000000000000020004000400040002000AC
:104410000000000100010001000100010001000195
:1044200000010000400040002000000000000000EB
:10443000000000000098012401440144014400FCF4
:10444000000410001FFC00880104010400880070B3
:1044500000000000007000880104010401040088CD
:1044600000000000007000880104010411081FFC16
:104470000004000000F8014401440144014400C864
:1044800000000000010401040FFC110411041100DC
:104490001800000000D601290129012901C90106DF
:1044A000000010041FFC008401000100010400FC56
:1044B000000400000104190419FC000400040000B9
:1044C00000000000000300010101190119FE0000B5
:1044D000000010041FFC0024004001B4010C010482
:1044E00000000000100410041FFC00040004000081
:1044F0000000010401FC0104010001FC01040100B1
:1045000000FC010401FC008401000100010400FC26
:104510000004000000F8010401040104010400F893
:104520000000010101FF0085010401040088007002
:10453000000000000070008801040104010501FF73
:1045400000010104010401FC008401040100018058
:104550000000000000CC0124012401240124019862
:10456000000000000100010007F801040104000040
:104570000000010001F8000400040004010801FC2F
:104580000004010001800170000C00100160018036
:10459000010001F0010C003001C00030010C01F0FD
:1045A000010000000104018C00740170018C010401
:1045B0000000010101810171000E001801600180FD
:1045C000010000000184010C013401440184010C4C
:1045D0000000000000000000000001003EFC40025E
:1045E00040020000000000000000FFFF000000008B
:1045F00000000000400240023EFC010000000000FC
:1046000000000000600080008000400040002000AA
:10461000200000000000000000000000000000007A
:10462000000000000000000000000000000000008A
:10463000000000000000000000000000000000007A
:1046400000000000000F80380FFE380F8038000097
:10465000000000000000000000000000000000005A
:104660000100000600000C000038000031000006C8
:1046700000000C00003800003000000000000000C6
:10468000000061800067F807F980006180006180A8
:104690000061800061800067F807F9800061800098
:1046A000000000000000000001C0E003E0F0063060
:1046B000080418081FFFFE040E080787F00381E0B6
:1046C00000000000000001F000060C0004040806D1
:1046D0000C7001F9C0000E00003BE000EC18070868
:1046E00008040C180003E00000000001E00007F0DF
:1046F00003F818041C0804170807E1D003C0E00001
:1047000023B0003C0800200800001000000000005A
:10471000000100003100003200001C000000000019
:104720000000000000000000000000000000000089
:104730000000000000000000000000000000000079
:1047400000007F0001FFC00780F00C00181000047B
:104750002000020000000000002000021000040CF5
:1047600000180780F001FFC0007F0000000000007B
:1047700000000000000000000000000000004200F7
:10478000006600006600003C0000180003FFC00047
:104790001800003C000066000066000042000000B7
:1047A00000000800000800000800000800000800E1
:1047B00001FFC00008000008000008000008000019
:1047C000080000000000000100003100003200007D
:1047D0001C000000000000000000000000000000BD
:1047E00000000000000000000000080000080000B9
:1047F0000800000800000800000800000800000889
:104800000000080000080000000000000000000098
:1048100000003800003800003800000000000000F0
:104820000000000000000000000000000000000088
:104830000000000600001C000070000180000E0057
:1048400000380000C0000700001C0000300000001D
:104850000000000000007F8001FFE0038070060080
:104860001804000804000806001803807001FFE027
:10487000007F80000000000000000000010008012F
:10488000000801000803FFF807FFF8000008000017
:104890000800000800000000000000000001C0380F
:1048A00002C05804009804011804021804041806F1
:1048B0001C1803F81801E0F80000000000000000D8
:1048C0000001C0E003C0F004000804080804080860
:1048D00006180803F41801E7F00001E000000000EA
:1048E0000000000000000300000D00001100006146
:1048F0000000810803010807FFF80FFFF800010816
:104900000001080000000000000000E007FCD006E5
:104910000808061008061008061008061838060FC2
:10492000F00607C0000000000000000000003F800B
:1049300001FFE00384300208180410080410080482
:104940001008071810030FF00007C0000000000057
:104950000000000003C0000700000600000600F889
:104960000607F806180006E0000700000600000031
:10497000000000000001E1E003F7F0063410041825
:1049800008041808040C08040C0806161803F3F0B1
:1049900001C1E000000000000000F80003FC30034B
:1049A000063804020804020804020804041003087C
:1049B000F001FFC0007F00000000000000000000C8
:1049C0000000000000000000000070380070380097
:1049D000703800000000000000000000000000002F
:1049E0000000000000000000000000000000301A7D
:1049F00000301C000000000000000000000000006B
:104A00000000000000000000000800001400002268
:104A100000004100008080010040020020040010DE
:104A20000800080000000000000021000021000034
:104A300021000021000021000021000021000021B0
:104A40000000210000210000000000000000000024
:104A500008000804001002002001004000808000CF
:104A600041000022000014000008000000000000C7
:104A70000003C00004C000040000080038080F381C
:104A80000808380810000C300007E00003C00000E0
:104A90000000000000003F8000FFE0038070020F74
:104AA0001006708804C088048308047F8802C090C0
:104AB00003012000FE400000080000180001F8007B
:104AC0003E0801C20007020007E20000FE00001FCE
:104AD000C80001F800003800000804000807FFF8CB
:104AE00007FFF80408080408080408080408080672
:104AF000180803F41801E7F00001E00000000000CE
:104B000000003F8001FFE0038070020018040008ED
:104B10000400080400080400100600200780C000FC
:104B2000000004000807FFF807FFF804000804006D
:104B30000804000804001802001003807001FFE060
:104B4000007F8000000004000807FFF807FFF8045A
:104B50000808040808040808040808043E080400BB
:104B60000806001801006000000004000807FFF8B4
:104B700007FFF804080804080004080004080004FB
:104B80003E0006000006000001800000000000005A
:104B900000003F8001FFE003807006001804000859
:104BA0000402080402080203F00783F00002000078
:104BB000020004000807FFF807FFF80408080008CF
:104BC0000000080000080000080004080807FFF8BB
:104BD00007FFF804000800000000000004000804BB
:104BE000000804000807FFF807FFF80400080400A5
:104BF000080400080000000000000000000000069B
:104C00000000070000010400010400010400030784
:104C1000FFFE07FFFC040000040000040000040085
:104C20000807FFF807FFF8040C08001800003E0012
:104C300004C7800503C80600F80400380400180003
:104C4000000804000807FFF807FFF8040008000048
:104C50000800000800000800000800000800001814
:104C600000006000000004000807FFF80780080744
:104C7000FC00007FC00003F80007C0007800078038
:104C80000807FFF807FFF804000804000807FFF80A
:104C900007000803C00000E000003800001E00000C
:104CA00007000001C00400F007FFF8040000000046
:104CB00000007F8001FFE0038070060018040008F8
:104CC00004000806001803003001FFE0007F8000A8
:104CD000000004000807FFF807FFF80404080404B4
:104CE00000040400040400040400060C0003F8009F
:104CF00001F000000000000000007F8001FFE003E1
:104D000080700600880400880400C806003C030088
:104D10003E01FFE6007F8400000004000807FFF862
:104D200007FFF8040808040800040C00040F00043E
:104D30000BC00610F003F03801E008000008000086
:104D40000001E0F803F030063010041808041808D9
:104D5000040C08040C080206180207F00781E000A2
:104D600000000180000600000400000400000400B0
:104D70000807FFF807FFF80400080400000400001B
:104D800006000001800004000007FFE007FFF004B8
:104D900000180000080000080000080000080000DB
:104DA0000804001007FFE0040000040000060000F3
:104DB00007E00007FE00041FE00001F800003800D3
:104DC00001E0043E0007C0000600000400000400EB
:104DD0000007E00007FFC0041FF80007C007F80045
:104DE00007FF80043FF80007C004F8000700000434
:104DF000000000000004000806001807C07805F154
:104E0000C8003E00001F800463E80780F806001811
:104E100004000800000004000006000007800007EE
:104E2000E008047C08001FF80007F800180804E0F8
:104E30000807000006000004000000000001000850
:104E40000600380400F80403E8040F08047C080591
:104E5000F00807C008070018040060000000000008
:104E6000000000000000000000000000003FFFFE06
:104E70002000022000022000022000022000020088
:104E8000000000000000000008000007000000C053
:104E9000000038000006000001C000003000000ED5
:104EA00000000100000000000000000020000220BF
:104EB00000022000022000022000023FFFFE00004E
:104EC00000000000000000000000000000000000E2
:104ED000000000080000100000300000200000303A
:104EE00000001000000800000000000000000000AA
:104EF00001000001000001000001000001000001AC
:104F0000000001000001000001000001000001009C
:104F10000001000000000000000000200000200050
:104F20000010000010000000000000000000000061
:104F30000000000000000000000000F00019F80070
:104F40001B18002208002608002408002410003F37
:104F5000F8001FF80000080000180000000400001E
:104F600007FFF80FFFF000181800100800200800D5
:104F70002008003018001FF0000FC00000000000E3
:104F8000000007C0001FF0001830002008002008B3
:104F9000002008003C08001C100000600000000019
:104FA00000000000000007C0001FF00038180020BB
:104FB0000800200800200804101007FFF80FFFF079
:104FC0000000100000000000000000000007C0000A
:104FD0001FF00012300022180022080022080032C0
:104FE00008001E10000E200000000000000020003D
:104FF00000200800200801FFF803FFF8062008043D
:105000002008042008072000030000000000000022
:105010000000000E000E6E001FF30031B10020B141
:105020000020B1003191001F13002E1E00200E0041
:10503000300000000004000807FFF80FFFF8001020
:1050400008002000002000002008003FF8001FF8A2
:105050000000080000000000000000000020080020
:105060002008002008063FF8063FF800000800006E
:105070000800000800000000000000000000000020
:1050800000000300000300200100200100200306AF
:105090003FFE063FFC000000000000000000000092
:1050A0000004000807FFF80FFFF800018800030064
:1050B000002FC00038F80020380020080000080049
:1050C00000000000000000000400080400080400C4
:1050D0000807FFF80FFFF8000008000008000008AC
:1050E000000000000000002008003FF8003FF8002A
:1050F0001008002000003FF8003FF80010080020D2
:1051000000003FF8003FF800000800000000200801
:10511000003FF8003FF800100800100000200000D9
:105120002008003FF8001FF8000008000000000001
:10513000000007C0000FF000183000300800200801
:10514000002008003008001830000FF00007C000F1
:105150000000000000002001003FFF003FFF0010A2
:1051600011002009002008002008003038001FF03E
:10517000000FC00000000000000007C0001FF0008A
:105180003818002008002008002009001011001F16
:10519000FF003FFF00000100000000200800200881
:1051A000002008003FF8003FF80008080010080041
:1051B0002008002000003000003000000000000047
:1051C00000000000000C78001E18003308002308BF
:1051D0000021080021880021980030F0003860008C
:1051E000000000000000200000200000200000FF60
:1051F000F003FFF80020080020080020080000301D
:10520000000000000000000000002000003FF0004F
:105210007FF8000018000008000008002010003F80
:10522000F8007FF0000010000000000000002000E7
:10523000003000003C00003F800023F000007800B8
:105240000070002380003C0000300000200000209F
:1052500000003C00003FE00023F80000E0002700D1
:10526000003E00003FE00021F80001E0003E0000A9
:105270002000000000002008002008003838003E10
:10528000680027800003C8002CF800383800201878
:105290000020080000000000000020000030030093
:1052A0003C01003F830023EC000070002380003CA1
:1052B00000002000002000000000000000000000AE
:1052C0000038080020380020F80023E8002F88006C
:1052D0003E080038080020180000700000000000A0
:1052E00000000000000000000000000000000800B6
:1052F0000014001FF7FC3000062000020000000030
:10530000000000000000000000000000000000009D
:1053100000000000FFFFFF00000000000000000090
:10532000000000000000000000000000200002302B
:1053300000061FF7FC001400000800000000000039
:105340000000000000000000000000000018000045
:105350006000004000004000002000001000000835
:1053600000000400000400000C0000100000000019
:10537000000000000000002F0000000007000700F0
:1053800000147F147F1400242A7F2A12006264080C
:105390001323003649552250000005030000000089
:1053A0001C224100000041221C000014083E081489
:1053B0000008083E0808000000A060000008080877
:1053C0000808000060600000002010080402003E91
:1053D0005149453E0000427F40000042615149462C
:1053E000002141454B31001814127F10002745451C
:1053F0004539003C4A49493000017109050300362E
:105400004949493600064949291E00003636000040
:105410000000563600000008142241000014141445
:105420001414000041221408000201510906003240
:105430004959513E007C1211127C007F494949367E
:10544000003E41414122007F4141221C007F4949E9
:105450004941007F09090901003E4149497A007F1D
:105460000808087F0000417F4100002040413F01C3
:10547000007F08142241007F40404040007F020C22
:10548000027F007F0408107F003E4141413E007FC3
:1054900009090906003E4151215E007F091929468C
:1054A0000046494949310001017F0101003F404068
:1054B000403F001F2040201F003F4038403F006316
:1054C0001408146300070870080700615149454338
:1054D00000007F41410000552A552A5500004141F6
:1054E0007F000004020102040040404040400000F0
:1054F00001020400002054545478007F484444388A
:1055000000384444442000384444487F0038545410
:10551000541800087E0901020018A4A4A47C007F8E
:10552000080404780000447D4000004080847D0031
:10553000007F102844000000417F4000007C0418D8
:105540000478007C0804047800384444443800FCA3
:10555000242424180018242418FC007C08040408BF
:1055600000485454542000043F444020003C404034
:10557000207C001C2040201C003C4030403C00446B
:1055800028102844001CA0A0A07C004464544C4473
:105590001414141414140000000000000000000093
:1055A000000000000000000000F800000000000003
:1055B00000333000000000100C06100C0600000044
:1055C00000000000000040C07840C0784000043F68
:1055D00004043F040400007088FC08300000001838
:1055E00020FF211E0000F008F000E018000000215C
:1055F0001C031E211E0000F00888700000001E2100
:1056000023241927211010160E00000000000000AE
:10561000000000000000000000E01804020000008C
:1056200000071820400000020418E00000000040BD
:10563000201807000000404080F080404000020237
:10564000010F01020200000000F000000000010153
:10565000011F01010100000000000000000080B0F7
:1056600070000000000000000000000000000001C9
:1056700001010101010100000000000000000030F4
:10568000300000000000000000008060180400608E
:1056900018060100000000E010080810E000000FEC
:1056A000102020100F00001010F800000000002053
:1056B000203F20200000007008080888700000309B
:1056C0002824222130000030088888483000001843
:1056D000202020110E000000C02010F8000000075C
:1056E0000424243F240000F80888880808000019D2
:1056F000212020110E0000E0108888180000000F03
:10570000112020110E0000380808C83808000000D9
:10571000003F000000000070880808887000001C2E
:10572000222121221C0000E010080810E0000000E7
:10573000312222110F00000000C0C0000000000054
:105740000030300000000000008000000000000079
:105750008060000000000000804020100800000170
:105760000204081020004040404040404000040433
:1057700004040404040000081020408000000020FD
:10578000100804020100007048080808F00000003A
:10579000003036010000C030C828E810E0000718CB
:1057A000272423140B000000C038E0000000203C38
:1057B00023020227382008F8888888700000203FDC
:1057C000202020110E00C0300808080838000718F3
:1057D00020202010080008F808080810E000203FEA
:1057E000202020100F0008F88888E8081000203FCB
:1057F00020202320180008F88888E8081000203F9F
:10580000200003000000C030080808380000071816
:105810002020221E020008F808000008F808203F97
:10582000210101213F20000808F80808000000209D
:10583000203F2020000000000808F8080800C08071
:1058400080807F00000008F888C028180800203FEA
:1058500020012638200008F8080000000000203F42
:1058600020202020300008F8F800F8F80800203F39
:10587000003F003F200008F830C00008F808203F33
:10588000200007183F00E01008080810E0000F1083
:10589000202020100F0008F808080808F000203F1A
:1058A000210101010000E01008080810E0000F18B5
:1058B000242438504F0008F8888888887000203FDA
:1058C0002000030C302000708808080838000038D9
:1058D000202121221C00180808F8080818000000E0
:1058E000203F2000000008F808000008F808001F0A
:1058F000202020201F000878880000C838080000F9
:1059000007380E010000F80800F80008F800033C12
:105910000700073C030008186880806818082030DA
:105920002C03032C30200838C800C83808000000B9
:10593000203F2000000010080808C8380800203860
:10594000262120201800000000FE020202000000B4
:10595000007F40404000000C30C00000000000000C
:1059600000010638C00000020202FE0000000040F4
:1059700040407F000000000004020202040000001A
:105980000000000000000000000000000000808017
:1059900080808080808000020204000000000000FF
:1059A00000000000000000008080808000000019DE
:1059B000242222223F2008F8008080000000003FBF
:1059C000112020110E000000008080800000000ED9
:1059D000112020201100000000808088F800000EB7
:1059E000112020103F200000808080800000001FD8
:1059F000222222221300008080F08888881800204C
:105A0000203F202000000000808080808000006B0C
:105A100094949493600008F8008080800000203FF8
:105A2000210000203F200080989800000000002006
:105A3000203F20200000000000809898000000C057
:105A40008080807F000008F8000080808000203F78
:105A500024022D302000000808F80000000000207B
:105A6000203F202000008080808080808000203FB8
:105A700020003F20003F8080008080800000203F89
:105A8000210000203F200000808080800000001F57
:105A9000202020201F00808000808000000080FFE8
:105AA000A12020110E000000008080808000000EE8
:105AB000112020A0FF808080800080808000202036
:105AC0003F212000010000008080808080000033A2
:105AD000242424241900008080E08080000000003D
